:100000000C945D000C9485000C9485000C94850084
:100010000C9485000C9485000C9485000C9485004C
:100020000C9485000C9485000C9485000C947A0A3D
:100030000C9485000C9485000C9485000C9485002C
:100040000C94B9080C9485000C9429090C940309AC
:100050000C9485000C9485000C9485000C9485000C
:100060000C945B090C94850000000000240027001C
:100070002A0000000000250028002B0004040404CE
:100080000404040402020202020203030303030342
:10009000010204081020408001020408102001021F
:1000A00004081020000000080002010000030407FB
:1000B0000000000000000000360B11241FBECFEF2F
:1000C000D8E0DEBFCDBF11E0A0E0B1E0E8E9F9E2A1
:1000D00002C005900D92A034B107D9F723E0A0E447
:1000E000B1E001C01D92A630B207E1F710E0CDE506
:1000F000D0E004C02197FE010E94C414CC35D10782
:10010000C9F70E94CC0B0C94CA140C94000086E42E
:1001100080937C0080917A00806480937A00809143
:100120007A0086FDFCCF8091780090917900089547
:1001300090E0FC01EC55FF4F2491FC01E057FF4F8C
:100140003491FC01E458FF4FE491EE23C9F02223DF
:1001500039F0233001F1A8F4213019F1223029F1CE
:10016000F0E0EE0FFF1FEE58FF4FA591B4918FB74F
:10017000F894EC91611126C030953E233C938FBFDB
:1001800008952730A9F02830C9F0243049F780912C
:1001900080008F7D03C0809180008F7780938000E6
:1001A000DFCF84B58F7784BDDBCF84B58F7DFBCF68
:1001B0008091B0008F778093B000D2CF8091B00053
:1001C0008F7DF9CF3E2BDACFCF93DF9390E0FC0108
:1001D000E057FF4F249184589F4FFC01849188235E
:1001E000D1F090E0880F991FFC01E859FF4FA591CD
:1001F000B491FC01EE58FF4FC591D49161110EC02E
:100200009FB7F8948C91E22FE0958E238C932881F0
:10021000E223E8839FBFDF91CF9108958FB7F894D1
:10022000EC91E22BEC938FBFF6CF1F93CF93DF932C
:10023000182FEB0161E00E94E400209739F460E0A0
:10024000812FDF91CF911F910C949800CF3FD10562
:1002500011F461E0F5CFE12FF0E0EC55FF4FE491B0
:10026000E33031F140F4E130B1F0E230E1F0C03898
:10027000D1057CF7E4CFE73029F1E83059F1E430DB
:10028000B1F780918000806280938000D0938B00D2
:10029000C0938A0004C084B5806884BDC7BDDF9167
:1002A000CF911F91089584B5806284BDC8BDF7CFFA
:1002B00080918000806880938000D0938900C093F3
:1002C0008800EDCF8091B00080688093B000C0932B
:1002D000B300E5CF8091B00080628093B000C093FE
:1002E000B400DDCF3FB7F8948091970190919801C9
:1002F000A0919901B0919A0126B5A89B05C02F3F06
:1003000019F00196A11DB11D3FBFBA2FA92F982F3B
:100310008827BC01CD01620F711D811D911D42E036
:10032000660F771F881F991F4A95D1F708958F92FE
:100330009F92AF92BF92CF92DF92EF92FF924B01CA
:100340005C010E9472016B017C010E9472016C19B8
:100350007D098E099F09683E734081059105A8F3C8
:1003600021E0821A9108A108B10888EEC80E83E046
:10037000D81EE11CF11C81149104A104B10429F7D9
:10038000FF90EF90DF90CF90BF90AF909F908F90B5
:1003900008952FB7F8946091930170919401809122
:1003A0009501909196012FBF0895AF92BF92CF9281
:1003B000DF92EF92FF920F931F93CF93DF936C0125
:1003C0007B018B01040F151FEB015E01AE18BF0806
:1003D000C017D10759F06991D601ED91FC910190B8
:1003E000F081E02DC6010995892B79F7C501DF91D0
:1003F000CF911F910F91FF90EF90DF90CF90BF9022
:10040000AF90089508950895FC01538D448D252FD4
:1004100030E0842F90E0821B930B541710F0CF969E
:10042000089501970895FC01918D828D981761F0D0
:10043000A28DAE0FBF2FB11D5D968C91928D9F5FE7
:100440009F73928F90E008958FEF9FEF0895FC01C6
:10045000918D828D981731F0828DE80FF11D858D79
:1004600090E008958FEF9FEF0895FC01918D228D0C
:10047000892F90E0805C9F4F821B91098F73992791
:1004800008958BE092E00E94350221E0892B09F467
:1004900020E0822F089580E090E0892B29F00E94CF
:1004A000410281110C9400000895FC01A48DA80F55
:1004B000B92FB11DA35ABF4F2C91848D90E00196A6
:1004C0008F739927848FA689B7892C93A089B189C6
:1004D0008C91837080648C93938D848D981306C067
:1004E0000288F389E02D80818F7D80830895EF92CB
:1004F000FF920F931F93CF93DF93EC0181E0888FDE
:100500009B8D8C8D98131AC0E889F989808185FFAD
:1005100015C09FB7F894EE89FF896083E889F9894F
:1005200080818370806480839FBF81E090E0DF9151
:10053000CF911F910F91FF90EF900895F62E0B8DA4
:1005400010E00F5F1F4F0F731127E02E8C8D8E115F
:100550000CC00FB607FCFACFE889F989808185FFC6
:10056000F5CFCE010E945502F1CFEB8DEC0FFD2FA0
:10057000F11DE35AFF4FF0829FB7F8940B8FEA8981
:10058000FB8980818062CFCFCF93DF93EC01888D90
:100590008823B9F0AA89BB89E889F9898C9185FDFE
:1005A00003C0808186FD0DC00FB607FCF7CF8C918C
:1005B00085FFF2CF808185FFEDCFCE010E945502ED
:1005C000E9CFDF91CF91089520916201260F332763
:1005D000331F21323105ECF42091E101FC0190E060
:1005E00080E0243069F082E00895A09162012191B9
:1005F000AC014E5B5E4FA40FB52FB11D2C9301963D
:10060000861798F380916201680F6093620180E021
:10061000089581E008951092E10181E08093E00166
:100620001092BB0161E082E10E94980061E083E1E9
:100630000E949800E9EBF0E080818E7F80838081CA
:100640008D7F808388E48093B80085E48093BC002C
:100650000895CF93DF9391E0909341018823B9F0FF
:10066000C091B800D091BA008091BC008A7B809381
:10067000BC0060E082E10E94980060E083E10E949B
:1006800098000E940B03D093BA00C093B800DF918A
:10069000CF9108958F929F92AF92BF92CF92DF92A7
:1006A000EF92FF920F931F93CF93DF93D0910A02A3
:1006B000D13208F0D7C0182FC09109020E947201F0
:1006C0006B017C018091E10181116BC082E080931C
:1006D000E1011093E0018FEF8093DF011092DE01C2
:1006E000D093DD01A9EEB1E0EDEBF1E080E0D813AD
:1006F00091C01092BC018091BC01CC0FC82BC0935B
:10070000BC018091BB01813009F088C01092BB010F
:100710000E9472016B017C018091BC018093BB003F
:100720008091E3019091E401A091E501B091E6018F
:10073000892B8A2B8B2BA1F00E9472010091E3017F
:100740001091E4012091E5013091E6016C197D09D9
:100750008E099F09061717072807390708F442C0B2
:100760008091BC0083FDD8CF85EC8093BC000E94B3
:1007700072016B017C018091E101823009F450C06B
:100780008091DF018F3F09F46FC08091DF018032DB
:1007900009F46CC08091DF01803309F469C084E002
:1007A00026C08091E3019091E401A091E501B09110
:1007B000E601892B8A2B8B2B09F484CF0E947201CE
:1007C0008090E3019090E401A090E501B090E601F3
:1007D0006C197D098E099F0986169706A806B90629
:1007E00008F070CF8091E2010E94290385E0109209
:1007F000E80110920A021092E701DF91CF911F9158
:100800000F91FF90EF90DF90CF90BF90AF909F90AF
:100810008F9008959D9191938F5F69CF85EEA5CFBD
:100820008091E3019091E401A091E501B091E6018E
:10083000892B8A2B8B2B09F49ECF0E947201009189
:10084000E3011091E4012091E5013091E6016C197A
:100850007D098E099F09061717072807390708F031
:100860008ACFC0CF81E0C3CF80E0C1CF82E0BFCFCD
:1008700083E0BDCFCF92DF92EF92FF920F931F9351
:10088000CF93DF93D82FC62F613208F098C00E9413
:1008900072016B017C018091E10181116BC081E0EB
:1008A0008093E1018093E0019FEF9093DF0110922C
:1008B000DE019C0F9093DD018093BC018091BC010F
:1008C000DD0FD82BD093BC018091BB01813009F0A2
:1008D00078C01092BB010E9472016B017C01809173
:1008E000BC018093BB008091E3019091E401A09151
:1008F000E501B091E601892B8A2B8B2BA1F00E9498
:1009000072010091E3011091E4012091E501309121
:10091000E6016C197D098E099F090617170728073C
:10092000390708F448C08091BC0083FDD8CF85EC1E
:100930008093BC000E9472016B017C018091E101F7
:10094000813009F440C08091DE018C1710F4C09111
:10095000DE01EDEBF1E0ABE9B1E080E08C1355C0D6
:100960008C2FDF91CF911F910F91FF90EF90DF902F
:10097000CF9008958091E3019091E401A091E50169
:10098000B091E601892B8A2B8B2B09F484CF0E942E
:1009900072010091E3011091E4012091E501309191
:1009A000E6016C197D098E099F09061717072807AC
:1009B000390708F070CF8091E2010E942903C0E05E
:1009C000CFCF85EEB5CF8091E3019091E401A09166
:1009D000E501B091E601892B8A2B8B2B09F4AECF70
:1009E0000E9472010091E3011091E4012091E50160
:1009F0003091E6016C197D098E099F0906171707CA
:100A00002807390708F09ACFD6CF91919D938F5F31
:100A1000A5CF0895E0918A0180918901E81730F40B
:100A2000F0E0E556FE4F808190E008958FEF9FEF54
:100A3000089590918A01809189012FEF3FEF9817D7
:100A400048F4E92FF0E0E556FE4F208130E09F5F4B
:100A500090938A01C90108958091890190918A013A
:100A6000891B990B0895CF92DF92EF92FF920F931B
:100A70001F93CF93DF937C01CB018A012091E70183
:100A8000222389F0EB016B01C40ED51ECC15DD05C8
:100A900069F06991D701ED91FC910190F081E02D11
:100AA000C7010995F3CF642F0E94E402C801DF91CA
:100AB000CF911F910F91FF90EF90DF90CF9008950D
:100AC000CF93DF931F92CDB7DEB769832091E70103
:100AD0002223F9F020910A02203258F021E030E080
:100AE000FC013383228390E080E00F90DF91CF916F
:100AF00008958091E801E82FF0E0E751FE4F9981D9
:100B000090838F5F8093E80180930A0281E090E0F8
:100B1000ECCF61E0CE0101960E94E402F7CF90E0B5
:100B200080E008950F931F93CF93DF93EC01142F70
:100B3000052F89819A812B8131E03093E701209341
:100B400009021092E80110920A02DC01ED91FC9179
:100B50000190F081E02D099589819A81DC01ED9168
:100B6000FC910190F081E02D602F099589819A8197
:100B7000DC01ED91FC910190F081E02D612F099550
:100B800081E00E944A038883DF91CF911F910F91EA
:100B900008951F93CF93DF93EC01142F89819A81DD
:100BA0002B8131E03093E701209309021092E80194
:100BB00010920A02DC01ED91FC910190F081E02D90
:100BC000099589819A81DC01ED91FC910190F08178
:100BD000E02D612F099581E00E944A038883DF910F
:100BE000CF911F910895EF92FF920F931F93CF9390
:100BF000DF93C82FD62F8A01FC2EFF1CFF24FF1C79
:100C00006F2D82E00E94980061E01C160CF060E0FD
:100C100084E00E949800FF2009F467C0C03809F4FE
:100C2000C1E8C195CC0F6C2F70E090E080E00E948D
:100C30008D132DEC3CEC4CE85FE30E941E140E94E7
:100C40005C137B018FEFE816F10421F018F0EE241D
:100C5000EA94F12C6C2F70E083E00E941501B7013B
:100C600085E00E941501CD2FCC1FCC27CC1F6C2F07
:100C700087E00E94980061E01D160CF060E088E0BB
:100C80000E949800CC23C1F1D03809F4D1E8D19565
:100C9000FD2EFF0C6F2D70E090E080E00E948D1320
:100CA0002DEC3CEC4CE85FE30E941E140E945C13A8
:100CB000EB016F3F710519F010F0CFEFD0E06F2D11
:100CC00070E086E00E941501BE0189E00E941501D6
:100CD00001151105C1F0B80190E080E00E94970174
:100CE000C0E0D0E010E000E087CFC1119BCFEE2440
:100CF000EA94F12CCFEFAECFD111CACFCFEFD0E035
:100D0000FF24FA94DCCFDF91CF911F910F91FF90D8
:100D1000EF9008950F931F93CF93DF93EC01898198
:100D20009A812B8131E03093E701209309021092E0
:100D3000E80110920A02DC01ED91FC910190F08132
:100D4000E02D099581E00E944A03888362E08B814F
:100D50000E943A0410928A018093890189819A81C4
:100D6000DC01ED91FC910284F385E02D099500E012
:100D7000182F89819A81DC01ED91FC910284F38521
:100D8000E02D0995802B912BDF91CF911F910F9131
:100D90000895CF93DF93EC0189819A812B8131E013
:100DA0003093E701209309021092E80110920A02A1
:100DB000DC01ED91FC910190F081E02D099581E03D
:100DC0000E944A03888361E08B810E943A0410925A
:100DD0008A018093890189819A81DC01ED91FC91DE
:100DE0000284F385E02D0995DF91CF910895CF938B
:100DF000DF93EC01462F416060E00E94C9050E942C
:100E0000C90178876F8363E1CE010E94C9068770AC
:100E100089F48C819D81892BB1F30E94C9012F81B6
:100E20003885621B730B8C819D818617970758F755
:100E300080E00BC041E06BE0CE010E94C90540E0BC
:100E400060E0CE010E94C90581E0DF91CF91089555
:100E50008F929F92AF92BF92CF92DF92EF92FF92CA
:100E60000F931F93CF93DF936C017B01EA0160E541
:100E70000E94C9068F5F880F90E09983888366E49B
:100E8000C6010E94C906082F10E00F5F1F4F1D8387
:100E90000C83A881B0E020E03FE24AE350E00E94EA
:100EA000A6126C507E4F8F4F9F4F38EE832E33E04B
:100EB000932EA12CB12CA50194010E94B912D80146
:100EC0000E94B1126C507E4F8F4F9F4FA50194012D
:100ED0000E94B9122A873B874C875D8761E5C6016E
:100EE0000E948A068C01112702C0000F111F9A95DB
:100EF000E2F70F5F1F4F1F830E83A881B0E020E051
:100F00003FE24AE350E00E94A6126C507E4F8F4FA2
:100F10009F4FA50194010E94B912D8010E94A61208
:100F20006C507E4F8F4F9F4FA50194010E94B912C4
:100F30002E873F87488B598B60E7C6010E94C90600
:100F40008F5F880F90E09B838A8361E7C6010E94D0
:100F50008A069C01992702C0880F991F3A95E2F7EB
:100F6000019699878887F7012381222331F02E810A
:100F70003F81821B930B99878887AA81B0E020E08C
:100F80003FE24AE350E00E94A6126C507E4F8F4F22
:100F90009F4F28EEC22E23E0D22EE12CF12CA70188
:100FA00096010E94B912A885B9850E94A6126C50BC
:100FB0007E4F8F4F9F4FA70196010E94B9122A8B37
:100FC0003B8B4C8B5D8BDF91CF911F910F91FF90ED
:100FD000EF90DF90CF90BF90AF909F908F9008954B
:100FE000CF93DF93EB0161E00E94C90684FB992750
:100FF00090F9988383FB992790F99A8382FB99272C
:1010000090F9998386FB992790F99B83881F8827FD
:10101000881F8C83DF91CF9108950F931F93CF93F7
:10102000DF93EC0141E060E80E94C90541E06FEF09
:10103000CE010E94C90540E060E0CE010E94C905D2
:10104000498561E9CE010E94C90541E060E0CE0119
:101050000E94C90540E06FEFCE010E94C90540E043
:1010600060E8CE010E94C90541E060E0CE010E9427
:10107000C9050E94C90178876F8360E0CE010E9494
:10108000C90680FF19C08C819D81892BB1F30E9414
:10109000C9012F813885621B730B8C819D81861756
:1010A000970758F781E08E830FEF1FEFC801DF919C
:1010B000CF911F910F9108950E94C90178876F8386
:1010C00063E1CE010E94C906877081F48C819D8105
:1010D000892BB1F30E94C9012F813885621B730BE4
:1010E0008C819D818617970758F7DCCF6EE1CE0182
:1010F0000E948A068C0141E06BE0CE010E94C90586
:10110000D5CF85ED8093BC008091E3019091E401FF
:10111000A091E501B091E6010796A11DB11D23E064
:10112000B695A795979587952A95D1F72091BC00FC
:1011300024FD03C01092E10108954091E301509114
:10114000E4016091E5017091E601452B462B472BA8
:1011500069F30097A105B10541F025E32A95F1F760
:1011600000000197A109B109E1CF8091E2010C943F
:1011700029031F920F920FB60F9211242F933F93C2
:101180008F939F93AF93BF9380919301909194011C
:10119000A0919501B09196013091920123E0230F27
:1011A0002D3758F50196A11DB11D20939201809312
:1011B000930190939401A0939501B093960180912F
:1011C000970190919801A0919901B0919A0101968F
:1011D000A11DB11D8093970190939801A09399014F
:1011E000B0939A01BF91AF919F918F913F912F91B1
:1011F0000F900FBE0F901F90189526E8230F0296B0
:10120000A11DB11DD2CF1F920F920FB60F921124C4
:101210002F933F934F935F936F937F938F939F93FE
:10122000AF93BF93EF93FF938BE092E00E94550240
:10123000FF91EF91BF91AF919F918F917F916F91AE
:101240005F914F913F912F910F900FBE0F901F9084
:1012500018951F920F920FB60F9211242F938F9310
:101260009F93EF93FF93E0911B02F0911C0280810A
:10127000E0912102F091220282FD1BC090818091B9
:1012800024028F5F8F7320912502821741F0E09135
:101290002402F0E0E55FFD4F958F80932402FF91DB
:1012A000EF919F918F912F910F900FBE0F901F90F4
:1012B00018958081F4CF1F920F920FB60F921124D0
:1012C0002F933F934F935F936F937F938F939F934E
:1012D000AF93BF93EF93FF938091B900887F8036DF
:1012E00009F44AC0F0F5883209F4A7C018F5803136
:1012F00009F49BC0B8F4882309F4F9C0883009F4D4
:1013000094C0FF91EF91BF91AF919F918F917F9189
:101310006F915F914F913F912F910F900FBE0F9062
:101320001F901895883109F488C0803251F7809356
:10133000DF0114C0803409F49DC040F48033B9F358
:101340008833F9F68093DF0185ECB0C0803509F46D
:1013500085C0883509F496C0883499F60E948108C2
:10136000D0CF883909F48CC038F5883729F050F48B
:10137000883611F0803729F683E08093E1011092DE
:10138000840157C0883809F47BC0803919F080384F
:1013900009F0B7CF80918401803208F071C0E091EC
:1013A000840181E08E0F809384018091BB00F0E086
:1013B000EC59FE4F80833DC0803B39F0E0F4803A29
:1013C00009F479C0883A09F09CCF84E08093E10168
:1013D0001092630110926201E0918701F0918801FF
:1013E00009958091620181110FC081E080936201B3
:1013F0001092420109C0803C09F4A6CF883C09F450
:10140000A3CF883B09F07DCFE091630181E08E0F8F
:1014100080936301F0E0EE5BFE4F80818093BB0020
:10142000909163018091620129C08091BC018093F9
:10143000BB0085EC8093BC0064CF9091DE0180916D
:10144000DD01981758F5E091DE0181E08E0F809361
:10145000DE01F0E0E354FE4F8081E9CFE091DE0150
:1014600081E08E0F8093DE018091BB00F0E0E354B9
:10147000FE4F80839091DE018091DD019817C8F2C4
:1014800085E8D8CFE091DE0181E08E0F8093DE0108
:101490008091BB00F0E0E354FE4F80838091E00137
:1014A00081115CCF81E08093BB0184EA8093BC0012
:1014B0001092E10126CF85EC8093BC001092E101EF
:1014C00080918401803230F4E0918401F0E0EC59A5
:1014D000FE4F10826091840170E0E0918501F091EF
:1014E000860184E691E00995109284010ACF10925A
:1014F000DF0134CF1F920F920FB60F9211242F935A
:101500003F934F935F936F937F938F939F93AF938B
:10151000BF93CF93DF93EF93FF9380914001C091EE
:10152000D802D0E087FF24C010928500109284007A
:10153000809140018F5F8093400180914001082E8F
:10154000000C990B8C179D0724F4809140018C307E
:10155000C4F18091840090918500049680349C4968
:1015600008F47AC08091840090918500049676C03A
:1015700080914001082E000C990B8C179D07C4F632
:10158000E09140018E2FEE0F990BFC01EE0FFF1F33
:10159000E80FF91FEC54FD4F808186FFC9CFE09121
:1015A00040018E2FEE0F990BFC01EE0FFF1FE80F8D
:1015B000F91FEC54FD4F808160E08F730E9498000A
:1015C000B7CF2091840030918500E09140018E2FAB
:1015D000EE0F990BFC01EE0FFF1FE80FF91FEC5403
:1015E000FD4F81819281820F931F90938900809398
:1015F0008800E09140018E2FEE0F990BFC01EE0F59
:10160000FF1FE80FF91FEC54FD4F808186FF11C0CA
:10161000E09140018E2FEE0F990BFC01EE0FFF1FA2
:10162000E80FF91FEC54FD4F808161E08F730E9439
:101630009800FF91EF91DF91CF91BF91AF919F9172
:101640008F917F916F915F914F913F912F910F906B
:101650000FBE0F901F90189580E49CE9909389002D
:10166000809388008FEF80934001E3CF10920E02A9
:1016700010920D0288EE93E0A0E0B0E080930F029C
:1016800090931002A0931102B093120220E231E075
:1016900030930C0220930B0225EC30E030931802BB
:1016A0002093170224EC30E030931A0220931902A1
:1016B00020EC30E030931C0220931B0221EC30E040
:1016C00030931E0220931D0222EC30E03093200262
:1016D00020931F0226EC30E0309322022093210257
:1016E00010922402109225021092260210922702D4
:1016F0001092AB021092AA028093AC029093AD02BA
:10170000A093AE02B093AF0282E391E09093A9025E
:101710008093A8028091D8028C30D0F591E0980F88
:101720009093D8028093030390E0FC01EE0FFF1F1B
:10173000E80FF91FEC54FD4F88EB9BE09283818307
:1017400028EA32E03093DB022093DA0289E28093C8
:10175000DC021092DE021092DD021092DF02309362
:10176000E9022093E8028093EA021092EC021092C0
:10177000EB021092ED023093F7022093F602809371
:10178000F8021092FA021092F9021092FB020895E8
:101790008FEF80930303D4CFCF93DF93CDB7DEB722
:1017A000A6970FB6F894DEBF0FBECDBF789484B570
:1017B000826084BD84B5816084BD85B5826085BD4D
:1017C00085B5816085BD80916E00816080936E00DB
:1017D00010928100809181008260809381008091CD
:1017E000810081608093810080918000816080937E
:1017F00080008091B10084608093B1008091B0003E
:1018000081608093B00080917A00846080937A0038
:1018100080917A00826080937A0080917A00816062
:1018200080937A0080917A00806880937A00109289
:10183000C100E0911B02F0911C0282E08083E091E4
:101840001702F09118021082E0911902F0911A0229
:1018500080E1808310922302E0911F02F091200228
:1018600086E08083E0911D02F0911E0280818061FC
:101870008083E0911D02F0911E0280818860808348
:10188000E0911D02F0911E02808180688083E091CA
:101890001D02F0911E0280818F7D808361E08DE0CA
:1018A0000E94E40060E084E10E94E40061E082E0E4
:1018B0000E94E40061E084E00E94E40061E083E0D3
:1018C0000E94E40061E085E00E94E40061E087E0BE
:1018D0000E94E40061E088E00E94E40061E086E0AC
:1018E0000E94E40061E089E00E94E40061E081E19F
:1018F0000E94E40061E080E10E94E40010928A010D
:10190000109289011092E80110920A020E940B03C2
:1019100082E092E0909388018093870183E092E0D7
:10192000909386018093850126E031E03BA32AA3B2
:10193000BCE0EB2EB1E0FB2E1901D1011C91B2E00D
:101940002B0E311C61E0812F0E94E4006AE070E000
:1019500080E090E00E94970160E0812F0E94980053
:10196000E214F30451F76AE070E080E090E00E9436
:10197000970109ED12E0E0E0F1E0FDA3ECA3AAA1DC
:10198000BBA18C911296BBA3AAA361E00E94980010
:101990006AE070E080E090E00E94970160ECC8018E
:1019A0000E94C9068E3E09F0A0C069E8C8010E94E5
:1019B000C906482F416069E8C8010E94C90540E096
:1019C00068E8C8010E94C90541E060E8C8010E94BA
:1019D000C90541E06FEFC8010E94C90540E060E021
:1019E000C8010E94C90561E9C8010E94C906F80141
:1019F000818741E060E0C8010E94C90540E06FEFC7
:101A0000C8010E94C90540E060E8C8010E94C905FC
:101A100060E6C8010E94C906482F426160E6C8011D
:101A20000E94C90540E250E064E4C8010E949205AA
:101A30004FEF61E0C8010E94C90541E060E8C801BC
:101A40000E94C90541E06FEFC8010E94C90540E04E
:101A500060E0C8010E94C90546E06FEFC8010E941E
:101A6000C90563E8C8010E94C906482F446063E8BD
:101A7000C8010E94C90547E06FEFC8010E94C9056F
:101A800041E061E8C8010E94C90541E060E8C80181
:101A90000E94C9054BE664E9C8010E94C90540E0FF
:101AA00063E8C8010E94C9050E94C901D8011896BF
:101AB0007C936E93179763E8C8010E94C906811151
:101AC00064C0F80184819581892BA9F30E94C90122
:101AD000D80117962D913C911897621B730B1496A1
:101AE0008D919C918617970730F7ECA1FDA1F080AE
:101AF0003296FDA3ECA34F2D4F776AE8C8010E94F0
:101B0000C905D8011396FC921397E8ECF0E01596FE
:101B1000FC93EE9314976AE070E080E090E00E94FE
:101B20009701025F1F4F2AA13BA12215330509F03F
:101B300026CF50E040E060E080E00E94F3050E9484
:101B4000C9011B012C01612C712C43018BE092E037
:101B50000E943502892B09F01DC40E94C9019B0116
:101B6000AC0160E070E080E090E05101620173013F
:101B700084010E94AF14A2E30E94B81439F334F335
:101B80001092910110929001E1CF41E063E8C80109
:101B90000E94C90562E9C8010E94C906982EE8940E
:101BA00097F8B82EBB1CBB24BB1C40E061E8C80101
:101BB0000E94C90546E06FEFC8010E94C90563E8AD
:101BC000C8010E94C906482F4B7F63E8C8010E94E4
:101BD000C90541E06FEFC8010E94C90541E060E01E
:101BE000C8010E94C90540E06FEFC8010E94C90505
:101BF00040E060E8C8010E94C905F8018181928136
:101C0000238131E03093E701209309021092E8012B
:101C100010920A02DC01ED91FC910190F081E02D1F
:101C200060EB099581E00E944A03F801808366E039
:101C300083810E943A0410928A01809389017E0177
:101C4000F7E1EF0EF11C6701A7E0AA2EAA94AA20E3
:101C500079F0D80111968D919C91DC01ED91FC9168
:101C60000284F385E02D0995F60181936F01EECF93
:101C700041E06FEFC8010E94C90540E06FE4C80170
:101C80000E94C9054CE26EE4C8010E94C90540E00B
:101C90006FEFC8010E94C90544EB66EBC8010E94C2
:101CA000C9056CE0B11001C060E090E080E0E82F71
:101CB000E695E695E695F0E0D701AE0FBF1F2C91B3
:101CC000482F4770861710F0991238C0EE0DFF1D8F
:101CD000A1E0B0E002C0AA0FBB1F4A95E2F7AD0138
:101CE0004095242320838F5F803309F7F801818199
:101CF0009281238131E03093E70120930902109211
:101D0000E80110920A02DC01ED91FC910190F08152
:101D1000E02D60EB0995F7E0DF2EDA94DD20C1F0CD
:101D2000F80181819281D7016D917D01DC01ED91F6
:101D3000FC910190F081E02D0995EFCF30E002C0D9
:101D4000359527954A95E2F720FFCDCF9F5FCBCF02
:101D500081E00E944A03F801808341E06FEFC801EF
:101D60000E94C90540E060E0C8010E94C90540E04A
:101D70006FEFC8010E94C90540E069E0C8010E94F8
:101D8000C90540E060E1C8010E94C90540E061E189
:101D9000C8010E94C90541E064E2C8010E94C9056A
:101DA0004FEF65E2C8010E94C90540E065E7C80140
:101DB0000E94C90541E06FEFC8010E94C9054CE2CD
:101DC0006EE4C8010E94C90540E068E4C8010E94B1
:101DD000C90540E260E3C8010E94C90540E06FEF19
:101DE000C8010E94C90549E060E3C8010E94C90515
:101DF00040E064E5C8010E94C90544E061E3C80110
:101E00000E94C90543E062E3C8010E94C90543E896
:101E100060E4C8010E94C90545E266E4C8010E9469
:101E2000C90540E060E6C8010E94C90540E067E2DC
:101E3000C8010E94C90546E060E5C8010E94C905C5
:101E400040E061E5C8010E94C90546E962E5C801B4
:101E50000E94C90548E066E5C8010E94C90540E343
:101E600067E5C8010E94C90540E061E6C8010E941B
:101E7000C90540E062E6C8010E94C90540E064E689
:101E8000C8010E94C90540E065E6C8010E94C90575
:101E900040EA66E6C8010E94C90541E06FEFC8014B
:101EA0000E94C90542E362E2C8010E94C90544E1FB
:101EB00067E4C8010E94C9054FEF69E4C8010E94A8
:101EC000C90540E06AE4C8010E94C90540E06FEF1F
:101ED000C8010E94C9054AE06AE7C8010E94C90515
:101EE00040E06BE7C8010E94C90541E268E7C8010C
:101EF0000E94C90541E06FEFC8010E94C90544E393
:101F000063E2C8010E94C90540E062E4C8010E9482
:101F1000C9054FEF64E4C8010E94C90546E265E4C3
:101F2000C8010E94C90545E066E4C8010E94C905D0
:101F300040E460E4C8010E94C90546E06EE0C801C3
:101F40000E94C9054AE160E2C8010E94C90540E457
:101F500063E4C8010E94C90540E06FEFC8010E9418
:101F6000C90543E064E3C8010E94C90544E465E390
:101F7000C8010E94C90541E06FEFC8010E94C90570
:101F800044E061E3C8010E94C90549E06BE4C8016F
:101F90000E94C90545E06CE4C8010E94C90544E0FF
:101FA0006DE4C8010E94C90540E06FEFC8010E94BE
:101FB000C90540E064E4C8010E94C90540E265E447
:101FC000C8010E94C90548E067E4C8010E94C9052C
:101FD00048E268E4C8010E94C90540E067E6C8011C
:101FE0000E94C90544E060E7C8010E94C90541E0BC
:101FF00061E7C8010E94C9054EEF62E7C8010E946F
:10200000C90540E066E7C8010E94C90540E067E7EE
:10201000C8010E94C90541E06FEFC8010E94C905CF
:1020200041E06DE0C8010E94C90540E06FEFC801C2
:102030000E94C90541E060E8C8010E94C90548EF57
:1020400061E0C8010E94C90541E06FEFC8010E942C
:10205000C90541E06EE8C8010E94C90541E060E0A1
:10206000C8010E94C90540E06FEFC8010E94C90580
:1020700040E060E8C8010E94C90544E06AE0C80188
:102080000E94C90564E8C8010E94C906482F4F7E16
:1020900064E8C8010E94C90541E06BE0C8010E94E4
:1020A000C905BE01635E7F4FC8010E94F007AE0103
:1020B0004F5F5F4FBE01635E7F4FC8010E942807DC
:1020C0008D8D882309F4F9C08B859C85AD85BE85EF
:1020D0008C57924FAF4FBF4F2F8D222309F4F2C080
:1020E0004B855C856D857E854E545D4F6F4F7F4F70
:1020F000440F551F661F771F840F951FA61FB71F1C
:1021000028A1222361F04F85588969897A894C5624
:102110005D4F6F4F7F4F840F951FA61FB71F29A1DB
:10212000222361F04B895C896D897E894A5D5D4F10
:102130006F4F7F4F840F951FA61FB71FF80182872F
:102140009387A487B58748EE61E0C8010E94C9055E
:10215000D8011A96CD90DD90ED90FC901D97BE01B0
:10216000635E7F4FC8010E94F007AE014F5F5F4F73
:10217000BE01635E7F4FC8010E9428078D8D56E324
:10218000452E5BE0552E612C712C882351F04B8439
:102190005C846D847E84B4E84B0EBDE05B1E611CE4
:1021A000711C8F8D882309F49AC08B859C85AD8521
:1021B000BE858E549D4FAF4FBF4F880F991FAA1FEA
:1021C000BB1F480E591E6A1E7B1EE8A1EEA3EE231C
:1021D00061F08F859889A989BA898C569D4FAF4F38
:1021E000BF4F480E591E6A1E7B1E89A1882309F421
:1021F00092C0F6E24F0EF2E05F1E611C711CC41427
:10220000D504E604F70408F486C0AB81B0E020E012
:102210003FE24AE350E00E94A6124B015C0124EF2A
:10222000820E21E0921EA11CB11CA7019601241967
:10223000350946095709A8EEB3E00E94A6122B0102
:102240003C01C501B40120ED37E040E050E00E94C0
:10225000B912420E531E641E751EC501B40128EE4C
:1022600033E040E050E00E94B912C301B2010E9485
:10227000B9128EA1882331F08F819885280F391FDC
:10228000411D511D211531054105510509F461C05C
:10229000BA01A901415051096109710990E080E03A
:1022A0004A015B01882489288A288B2829F17695A0
:1022B0006795579547950196F3CF86E39BE0A0E09D
:1022C000B0E00ACF2E8D222309F41ACF4B855C850E
:1022D0006D857E854C565D4F6F4F7F4F0DCF8E8D38
:1022E000882309F472CF8B859C85AD85BE858C567D
:1022F0009D4FAF4FBF4F65CF982F8827482B592B45
:1023000061E7C8010E949205D8011A96CD92DD922C
:10231000ED92FC921D9741E061E0C8010E94C90561
:1023200060E4C8010E94F706882309F4DECB42E08E
:1023300061E0C8010E94C90560E0C8010E94F7067B
:10234000882309F4D2CB48EE61E0C8010E94C90598
:10235000CCCB50E040E0D4CF823029F450E040E0D4
:1023600060E080E048C0863009F048C010918C01E0
:1023700061E011160CF060E081E10E949800612F8D
:10238000661F6627661F80E10E94980010929101E7
:10239000109290018BE092E00E9435021816190607
:1023A0000CF0C7C08BE092E00E94130220919001D4
:1023B00030919101F901E557FE4F80832F5F3F4F28
:1023C000309391012093900180918B01E82FEE0FC3
:1023D000FF0BE65FFE4F4081518124173507D1F690
:1023E000813009F0B9CF40918E0150918F016091F9
:1023F0008D0180918C010E94F305C8CF873009F0D0
:1024000046C000918C0110918D010115110509F450
:10241000BDCFB801012E000C880B990B0E948D13C3
:102420006B017C0120E030E0A9010E94191418160C
:1024300034F520E030E04AE754E4C701B6010E94D9
:10244000EA122BED3FE049EC50E40E94EA1220E052
:1024500030E044EB53E40E941E142FEC37EF4BE8BE
:1024600050E40E941E140E945C13AB016AEB86E4E8
:10247000101611060CF4BFCF66E48AEBBCCFC7017F
:10248000B601905820E030E04AE754E4D8CF8530D8
:1024900089F580918C01188E1F8A87FD04C08330D6
:1024A00084F08330D9F08F89988D9A83898342E0B4
:1024B00050E0BE016F5F7F4F8BE092E00E94D5013C
:1024C00065CF3EE08302C001112487529D4F0E94D8
:1024D0000D0880ED97E0988F8F8BE5CF0E948700E5
:1024E00021E030E08139914014F430E020E0388F71
:1024F0002F8BD9CF883009F049CF50E040E0609170
:102500008D0180918C010E94F30589ED92E00E947B
:102510000D08BFE7B9830E948700813991403CF0E4
:1025200090E88981892B898341E050E0C2CF90E017
:10253000F8CF20E030E0232B09F401CB0E944102C8
:10254000882309F4FCCA0E940000F9CA0E94DB1229
:10255000A59F900DB49F900DA49F800D911D1124F7
:102560000895B7FF0C94A6120E94A612821B930B2B
:102570000895A1E21A2EAA1BBB1BFD010DC0AA1FC4
:10258000BB1FEE1FFF1FA217B307E407F50720F0DC
:10259000A21BB30BE40BF50B661F771F881F991F57
:1025A0001A9469F760957095809590959B01AC01A0
:1025B000BD01CF010895A29FB001B39FC001A39FA9
:1025C000700D811D1124911DB29F700D811D11246C
:1025D000911D08950E94FE120C94DF130E94D813DF
:1025E00058F00E94D11340F029F45F3F29F00C9479
:1025F000C81351110C9413140C94CE130E94F013B1
:1026000068F39923B1F3552391F3951B550BBB2721
:10261000AA2762177307840738F09F5F5F4F220F66
:10262000331F441FAA1FA9F335D00E2E3AF0E0E85D
:1026300032D091505040E695001CCAF72BD0FE2FA7
:1026400029D0660F771F881FBB1F2617370748073B
:10265000AB07B0E809F0BB0B802DBF01FF279358F3
:102660005F4F3AF09E3F510578F00C94C8130C94DC
:1026700013145F3FE4F3983ED4F3869577956795FE
:10268000B795F7959F5FC9F7880F911D9695879528
:1026900097F90895E1E0660F771F881FBB1F621747
:1026A00073078407BA0720F0621B730B840BBA0B05
:1026B000EE1F88F7E09508950E94F81388F09F5761
:1026C00098F0B92F9927B751B0F0E1F0660F771F56
:1026D000881F991F1AF0BA95C9F714C0B13091F04C
:1026E0000E941214B1E008950C941214672F782FF1
:1026F0008827B85F39F0B93FCCF386957795679511
:10270000B395D9F73EF490958095709561957F4F7C
:102710008F4F9F4F0895E89409C097FB3EF4909522
:102720008095709561957F4F8F4F9F4F9923A9F0AA
:10273000F92F96E9BB279395F69587957795679539
:10274000B795F111F8CFFAF4BB0F11F460FF1BC07D
:102750006F5F7F4F8F4F9F4F16C0882311F096E910
:1027600011C0772321F09EE8872F762F05C06623BE
:1027700071F096E8862F70E060E02AF09A95660F77
:10278000771F881FDAF7880F9695879597F9089530
:1027900097F99F6780E870E060E008959FEF80EC14
:1027A000089500240A9416161706180609060895B7
:1027B00000240A9412161306140605060895092E1D
:1027C0000394000C11F4882352F0BB0F40F4BF2B8C
:1027D00011F460FF04C06F5F7F4F8F4F9F4F0895CC
:1027E00057FD9058440F551F59F05F3F71F04795C2
:1027F000880F97FB991F61F09F3F79F087950895A7
:10280000121613061406551FF2CF4695F1DF08C0C5
:10281000161617061806991FF1CF869571056105E2
:1028200008940895E894BB2766277727CB0197F98A
:1028300008950E948B1408F48FEF08950E943114BC
:102840000C94DF130E94D11338F00E94D81320F0AB
:10285000952311F00C94C8130C94CE1311240C94EE
:1028600013140E94F01370F3959FC1F3950F50E07D
:10287000551F629FF001729FBB27F00DB11D639F32
:10288000AA27F00DB11DAA1F649F6627B00DA11DD8
:10289000661F829F2227B00DA11D621F739FB00D7E
:1028A000A11D621F839FA00D611D221F749F3327EE
:1028B000A00D611D231F849F600D211D822F762F87
:1028C0006A2F11249F5750409AF0F1F088234AF064
:1028D000EE0FFF1FBB1F661F771F881F91505040D0
:1028E000A9F79E3F510580F00C94C8130C94131463
:1028F0005F3FE4F3983ED4F3869577956795B79557
:10290000F795E7959F5FC1F7FE2B880F911D969570
:10291000879597F90895990F0008550FAA0BE0E8DD
:10292000FEEF16161706E807F907C0F01216130691
:10293000E407F50798F0621B730B840B950B39F4D1
:102940000A2661F0232B242B252B21F408950A2637
:1029500009F4A140A6958FEF811D811D08952A19C4
:102960003B094C095D096E097F09800B910B0895A5
:102970000024A7FD00942A17300540055005600586
:102980007005800590050895EE0FFF1F0590F491E6
:08299000E02D0994F894FFCF3B
:102998008A008B008C000C000B000A000500010067
:1029A8000200030002000200030003000000000010
:1029B8007702D5010402C40235021302270200007F
:1029C8000000600533058F0509052C0519050A0562
:00000001FF
